:020000040800F2
:10000000300C002075010008312B00083D28000845
:1000100000000000000000000000000000000000E0
:100020000000000000000000000000009530000803
:100030000000000000000000332B0008973000088B
:100040008701000800000000870100088701000800
:100050008701000887010008870100088701000860
:1000600000000000870100088701000887010008E0
:1000700087010008870100088701000800000000D0
:10008000870100080000000000000000293100087E
:1000900000000000870100088701000887010008B0
:1000A0000000000087010008000000008701000830
:1000B00000F002F800F04EF80CA030C80838241800
:1000C0002D18A246671EAB4654465D46AC4201D190
:1000D00000F040F87E460F3E0FCCB6460126334274
:1000E00000D0FB1AA246AB4633431847743E0000CB
:1000F000943E0000103A02D378C878C1FAD852076B
:1001000001D330C830C101D504680C6070470000CD
:100110000023002400250026103A01D378C1FBD823
:10012000520700D330C100D50B60704710B5662967
:1001300002D103F001FB10BD002010BD1FB500F07F
:1001400017FD04000020002103F0E0FAE0601FBD6D
:1001500010B510BD01F062F81146FFF7EFFF03F094
:100160000FFA01F07AF803B4FFF7F2FF03BC01F0D5
:10017000C1F800000748804707480047FEE7FEE750
:10018000FEE7FEE7FEE7FEE704480549054A064BA1
:100190007047000025310008B1000008300600203B
:1001A000300C00203008002030080020FEB5054645
:1001B00010460C46184373D0AE468C460020AD1A4C
:1001C00001469C4167D36646002701243D46B61A86
:1001D0009D4102D313463A462124654676462F04B4
:1001E000360C3E432D0CB61A9D4104D3150C1B044E
:1001F0002B4312041034654676462F06360A3E43DA
:100200002D0AB61A9D4104D3150E1B022B43120270
:100210000834654676462F0736093E432D09B61A3F
:100220009D4104D3150F1B012B431201241D65466C
:100230007646AF07B6083E43AD08B61A9D4104D3D3
:10024000950F9B002B439200A41C65467646EF0752
:1002500076083E436D08B61A9D411AD392185B4149
:10026000641C16E00018764665464941B71A9D4160
:100270000191009009D36046B11A98418E46844698
:10028000009801990025401C6941DD0752082A4366
:100290005B08641EE6D57246634603B0F0BDFFE717
:1002A00000200146C046C0462A462346F5E7000026
:1002B0000FB41CB5074B06AA7B446946009005980D
:1002C00000F03DFC0020694600F04CFC1CBC08BC62
:1002D00004B01847A9080000F3B50446002081B017
:1002E00020622046E168884700287AD0252802D07D
:1002F0006268A16871E0E1682046002588470646EB
:100300000020E0610746A0612A2E0AD0304603F0A3
:100310002FF9002827D0B8000019303E00908661E0
:1003200019E00298BA00121902C8916102902046A1
:10033000E1688847012F064617D1E06900281FDAD7
:10034000202085431CE000980A21806948430099D9
:100350008019303888612046E1688847064603F0F6
:1003600007F90028EFD1012F0AD02E2E08D1204600
:10037000E16888470646202005437F1C022FC3DB27
:10038000A069002803DA4042A06101200543E80784
:1003900001D010208543002E23D030464138192843
:1003A00003D80120C002054320362046256031468F
:1003B000029A1546FFF7BAFE00280BD0012806D096
:1003C000ED1DE808C000083002908AE709E02D1D05
:1003D000029586E762683046A1689047206A401C13
:1003E0007EE7206AFEBDD2B210B513029A1813043C
:1003F0009A1800F00EF810BD01E004C0091F04298E
:10040000FBD28B0701D50280801CC90700D0027087
:10041000704700290BD0C30702D00270401C491E50
:10042000022904D3830702D50280801C891EE3E7DA
:100430000022EEE70022DFE7002203098B422CD3E3
:10044000030A8B4211D300239C464EE003460B4324
:100450003CD4002243088B4231D303098B421CD386
:10046000030A8B4201D394463FE0C3098B4201D378
:10047000CB01C01A524183098B4201D38B01C01AB0
:10048000524143098B4201D34B01C01A5241030927
:100490008B4201D30B01C01A5241C3088B4201D3D6
:1004A000CB00C01A524183088B4201D38B00C01A83
:1004B000524143088B4201D34B00C01A5241411AAA
:1004C00000D201465241104670475DE0CA0F00D08D
:1004D0004942031000D34042534000229C46030986
:1004E0008B422DD3030A8B4212D3FC22890112BA0C
:1004F000030A8B420CD3890192118B4208D38901E4
:1005000092118B4204D389013AD0921100E08909FB
:10051000C3098B4201D3CB01C01A524183098B42DC
:1005200001D38B01C01A524143098B4201D34B01C5
:10053000C01A524103098B4201D30B01C01A524128
:10054000C3088B4201D3CB00C01A524183088B42AF
:1005500001D38B00C01A5241D9D243088B4201D338
:100560004B00C01A5241411A00D201466346524123
:100570005B10104601D34042002B00D54942704722
:1005800063465B1000D3404201B50020C046C04620
:1005900002BD7047704770470246C80FC0078143CD
:1005A0004B0030B54B405B009B0D20D01923DB0680
:1005B000C91801231B05994220DB0324A407042545
:1005C0001346AB400BD3002B04D1EB0613409B002A
:1005D000E34204D401246407002312195941FF2384
:1005E0001B0599420BD2C9000143500F09E0CB0211
:1005F00004D501430803024305D0054830BDFF215F
:10060000C905084330BD084607210905884330BDA8
:100610000000C07F1F22030C02D10F22000402D071
:10062000030E03D004E00020014670470002083AA0
:10063000030F01D10001121F830F01D18000921E10
:10064000002801DB4000521E120551184205C0125D
:10065000411810467047C10FC90700D0404201221F
:1006600092071143D6E701218907D3E770B5054604
:100670004800440D124B0020002C0AD0634008D0E3
:100680009A4206DA6642B24203DD12054019514130
:1006900070BD002C08D0002B09D0C90FC907002A53
:1006A000F6DB084A114370BDC90FC90770BD284663
:1006B0000A03104302D00020034970BD284670BDD4
:1006C000FF0700000000F07F0000F87F0121C9054E
:1006D0000123411842001B06D3185B0E0AD0C1103B
:1006E0000722D206891840075242D14201D5520052
:1006F00089187047090208D50146002A03D0C10FA6
:10070000C9070020704710467047420202D00020FF
:1007100002497047072109050143F4E70000F87F0B
:100720007047FFB50C461E468FB003CA089009916A
:100730004F007D0D00D16D1E002108460020C046EF
:100740000321099A89050840002A03DA82008018EB
:1007500040080840800D01280A9002DD0020C043B7
:100760000A90089807430DD0EF48F04928184843ED
:100770000714189800281DD07542291E1DDD0A98FF
:1007800042421BE01898012802D00020302104E0EA
:100790000020F24305E02154401CB042FBDB304610
:1007A0000022189B002121540F998B600A60486039
:1007B00013B0F0BDBD1B6D1CDFE70A9A002900DAFB
:1007C00069420BA800F05AFA0BAB07CB03AB07C387
:1007D0000899099800F0B6FA6B4607C30146D44859
:1007E0000918002D00910ADDD14903980A9A49425F
:1007F000401803A90390684600F0C9FC07E003997C
:100800000A9A081803A90390684600F096FC6B4604
:1008100007C30004000C03D00020C043410800E0DF
:100820001046189A002A03D00022009215461EE0B6
:10083000751E05D400F0A0F9303262556D1EF9D551
:1008400001220843079602D000227F1C04E0207892
:10085000302801D100227F1E002A069789D01EE091
:10086000112D07DA00F088F9303262556D1C02460E
:100870000A43F5D1084303D00098002819D00EE0B0
:100880000021681E05E0235C625C63542254401E14
:10089000491C8142F7DBA81B401E07950690079A6A
:1008A00018990020A0540F98079B069A81600CC0ED
:1008B0007EE71126002018905BE7D21DF0B50D46AB
:1008C0000446D10893B0C90003C90C900D9102F001
:1008D00017FE02460D98C00F01D02D2007E02068BA
:1008E000810701D52B2002E04007C00F4001032AF9
:1008F0000F9001D0072A05DB03462946204600F069
:1009000079F90EE12078800601D5E76900E0062735
:100910002846652D04D0662814D0672D69D12DE0B6
:100920000020112F009001DB112300E07B1C0CAA9A
:1009300003A910A8FFF7F5FE1199002610987D1C59
:100940000E9142E001203B460CAAC0070B9001200B
:10095000009003A910A8FFF7E4FE119D12981099CA
:10096000002600280E9501D1781C0D18781B02D4A2
:1009700046427D1C761EE81B00903AE0012F00DA0B
:1009800001270020112F009001DD112300E03B46DC
:100990000CAA03A910A8FFF7C4FE11993D461098B0
:1009A00000260E91217809070BD40E99A94200DA8E
:1009B0000D4603A9012D04DD4A19203AD27F302AC1
:1009C00006D0B84201DA011D04DA012100910FE0DE
:1009D0006D1EEFE7002802DC86192D1A03E0411C8A
:1009E000A94200DD0D46801B401C00900120C0077D
:1009F0000B902078000705D40098A84202DB002065
:100A0000C043009069460020C8720B98012102AFD4
:100A10000337C907884225D0022010902B2011905F
:100A20000B9800280BDA40420B902D20119006E025
:100A30000B9800F0DBFB30317F1E0B903970109962
:100A4000481E00291090F3DC0B980028F0D1119873
:100A50007F1E38702088000501D5452000E0652004
:100A60007F1E387001A8C01BC01D0B900F98002876
:100A700000D0012041190098C01709180B980818D8
:100A8000A169081A401EA0612078C00602D4204641
:100A9000C046C0460F98002805D06268A1689047FC
:100AA000206A401C20622078C00625D52046C0461A
:100AB000C04621E0002E07DB0E98B04204DD03A8FB
:100AC0006268805DA16802E06268A168302090479A
:100AD000206A761C401C20620098401E002800906E
:100AE0000AD100F045F8C06862680168405CA168FE
:100AF0009047206A401C206228466D1E0028D9DCE1
:100B000007E062683878A1687F1C9047206A401C23
:100B100020620B99481E00290B90F2DC2046C0464B
:100B2000C046032044E6000001FCFFFF104D00001A
:100B3000E1DFFFFF01694A1C02610878704700B5D8
:100B40008FB00291002105910549019379440391E9
:100B5000114604906846FFF7BFFB0FB000BD0000D0
:100B6000E5FFFFFF0A681070521C0A607047000022
:100B700000487047EC0500200B4670B50246890717
:100B80008008084319469D08141AA9412509080739
:100B9000054308092C194841250A01060D43010A9D
:100BA0002C194141200C0D0428430D0C00194D4116
:100BB000002140194D41C00869070843E908840F26
:100BC0008D002543840024184D4124196D41121BCA
:100BD000AB4107E00925ED432C1152196341002474
:100BE000401C61411C460A250026551BB441F1D228
:100BF00070BD0000F8B51F46044601230068DB0203
:100C0000032601461840072A05DB002801D017A556
:100C100006E017A504E0002801D016A500E016A5FF
:100C2000102081432160A069C01E002FA06101D067
:100C3000401EA0612046C046C046002F09D038465D
:100C40006268A1689047206A401C2062C01C206234
:100C500006E0206AFAE762682878A1686D1C904770
:100C6000761EF8D22046C046C046F8BD4E414E0022
:100C70006E616E00494E4600696E6600F7B5164615
:100C80008AB02F4878446C4603467C33C06F5A685C
:100C90009B680DC42A487844763003AC0DC80DC457
:100CA0003720C001081837211B30FFF7CFFB05465E
:100CB0000C46803D1B3C02D56442012000E0002030
:100CC000002709900FE0E0070BD00C201C49784367
:100CD000794432464C394118684600F02EFA6B468A
:100CE00007C364107F1C002CEDD1154F7F442C3FAF
:100CF00015E0E80711D02001C0190EC8069108932D
:100D000007920068F04201D198190890324606A96E
:100D100003A800F012FA03AB07C36D10641C002D8A
:100D2000E7D1324669460998002803A802D000F0AE
:100D30002EFA01E000F001FA0A9B07C30DB0F0BDE6
:100D400044320000034640000A4610B5400D0BD067
:100D50000121C9070F24A40200191C0364082143C0
:100D6000540D2143D20207E000210120F2E7D40F05
:100D7000490021435200401E0029F8DADB0FDB074F
:100D8000184310BDFFB50D46144685B0486851683C
:100D900002F09EFB00910190A868A16802F098FB08
:100DA00002910390A868616802F092FB029A1218FF
:100DB0008242029201D2012000E00020019A0B1829
:100DC000D2180028019202D08A4202D903E08A4256
:100DD00001D2012000E00020009908180090686806
:100DE000A16802F075FB029A12188242029201D2A7
:100DF000012000E00020019A0B18D218002801926F
:100E000002D08A4202D903E08A4201D2012000E0E6
:100E100000200099081800902868216840004900C7
:100E2000400849084018EE49471814E0019940006D
:100E3000C90F08430090019802994000C90F084368
:100E40000190029803994000C90F0843029003984B
:100E500040007F1E039000980028E7DA08980028D9
:100E600001D0E04E00E00026B74228DAF71BF80672
:100E7000C00E15D0029B2021091A039A8B401A43F9
:100E80000392029A019BC2408B401A430292019A3C
:100E9000009BC2408B4000991A430192C1400091CF
:100EA0007A110BD06B460320811A01D5002101E095
:100EB000890059588700401ED951F5D53746039807
:100EC0000299002800D001200143089802910028CF
:100ED00008460CD0002800D001200199019A49054C
:100EE00008430121D20AC902D202019200E0012185
:100EF0000E9B0122D207012B02D0002B03D013E05E
:100F0000002807D116E0904204D890420CD1019BF2
:100F10000B4209D0019B5918019105D10099491C38
:100F2000009101D17F1C0092002803D010210846B7
:100F30000020C04628682168019B009A4840C10FE4
:100F40000598C90739430EC009B0F0BDFFB587B099
:100F5000099A089808995368926840688968964683
:100F60000022039317469446089A12685300099A80
:100F70005B081268520052089A1A9B4BD4180A9ABE
:100F8000002A01D0352200E04022069200220123EF
:100F900015460492DB07059324E0002D05D1754624
:100FA0000346039E4D1BB34109D375466646039B1A
:100FB000491B049D9841059B7519AC465F416346EA
:100FC0003B4308D0059B049EDD0776082E435B0853
:100FD0000496059301E0521E641EC50FED074918E3
:100FE0004041521C069B9A42D7DB002D04D1754626
:100FF000039A6B1A824101D203200CE0039A0B463C
:101000006B404240134303D0014303D0012002E070
:10101000022000E00020614601910021009702912A
:101020000A99002905D06146400201436D4B0191A8
:1010300002E08007002302909C423ADA1A1BD00695
:10104000C00E15D0029D2021019C091AC5408C407C
:101050002543029C8C4000D001242543019C02952D
:101060003D46C4408D4039462C43C1400194009117
:1010700054111DD06D460221002202290CD10320FB
:10108000001B07E0002804DB8600AE59002E00D0CC
:101090000122401C0328F5DB081B02D588002A50DA
:1010A00004E08000285810438A00A850491EE3D568
:1010B0001C460A98002802980CD0002800D0012075
:1010C0000199019A490508430121D20AC902D202B5
:1010D000019200E00121109B0122D207012B02D0D6
:1010E000002B03D013E0002807D116E0904204D86B
:1010F00090420CD1019B0B4209D0019B59180191E0
:1011000005D10099491C009101D1641C009200286E
:1011100003D0102108460020C04608980999019A7A
:101120000068096848400099C30F0798DB0723430C
:101130000360826041600BB0F0BD1FB500230092D8
:101140000A46014601A8FFF71DFE01AB07CB04B01C
:1011500010BD1FB5012300920A46014601A8FFF702
:1011600011FE01AB0F2407CBA402C30F4000DB0725
:101170004008001B002900DB002049000005490849
:10118000CC0A204349051843D20A1143DFE71FB5B3
:10119000002300920A46014601A8FFF7D7FE01ABE3
:1011A00007CBD4E71FB5012300920A46014601A8E8
:1011B000FFF7CCFE01AB0F2407CBA402C30F400006
:1011C000DB074008001B002900DB00204900000568
:1011D0004908CC0A204349051843D20A1143B6E70F
:1011E00002C0FFFF013C0000FF3F000001468008F5
:1011F000081A02091018020A1018020C1018C00868
:10120000820012185200891A01E0401C0A390A298A
:10121000FBD2704700487047CC0500207546FFF7A9
:10122000F9FFAE46050069465346C008C000854632
:1012300018B020B5FEF7A8FF60BC00274908B646E5
:101240000026C0C5C0C5C0C5C0C5C0C5C0C5C0C5D5
:10125000C0C5403D49008D46704710B50446C046A4
:10126000C0462046FEF77FFF10BD0000024670B565
:101270000A4392072AD11E4DEE0104C808C9541B27
:101280009443344017D0D0B2D9B2401A210601435A
:1012900010D190B299B2401A210401430AD1100230
:1012A0001902000A090A401A2102014302D1100E54
:1012B000190E401A70BD9A42DFD010BA19BA88428E
:1012C00001D9012070BD0020C04370BD02780B78A9
:1012D000401C491C002A09D09A4207D102780B7899
:1012E000401C491C002A01D09A42EFD0D01A70BD90
:1012F0000101010101491820ABBEFEE726000200F2
:101300007047000070B5044600F0EEF80546601C1A
:1013100002D004480078241800F0E6F8401BA042F0
:10132000FAD370BD20000020F8B500230324012566
:10133000BAE02E469E40B44632407CD00E79B607C5
:10134000B60F012E01D0022E17D186682746B64669
:101350005E00B74000967646BE43B646CF68009E14
:10136000B74076463743876046686746BE430F7985
:10137000FF06FF0F9F40374347600E79F643B607DD
:101380000ED0C6682746B4465E00B646B7406646ED
:10139000BE43B4468F687646B74066463743C7605B
:1013A0000E79B607B60F022E14D1DE08B600361835
:1013B0000096366A5F07B446FE0E0F27B646B74062
:1013C0006646BE43B4460F697646B7406646374325
:1013D000009E376206682746B4465E00B646B740B0
:1013E0006646BE430F79B446BF07BF0F7646B74087
:1013F0006646374307604E68B603B60F53D02D4F8D
:10140000BE692E43BE61BE699F08F607F60F2A4EDD
:10141000BF00BE190096B6680F27B4469E07360F68
:10142000B646B7406646BE430927FF06B446B842F3
:1014300002D1002710E036E0204FB84201D1012749
:101440000AE01F4FB84201D1022705E01D4FB84204
:1014500001D1032700E005277646B74066463743AB
:10146000009EB760184E36684F689643FF0300D55C
:101470001643154F3E607E684F689643BF0300D504
:101480001643114F7E60BE684F689643FF0200D539
:1014900016430D4FBE60FE684F689643BF0200D5ED
:1014A0001643094AD6605B1C0A681646DE4000D027
:1014B0003FE7F8BD00100240000001400004004872
:1014C00000080048000C004800040140426913462F
:1014D0000B401B0491430B4383617047002A01D0EA
:1014E00081617047816270470148806870470000E1
:1014F0002000002070B5024640325378202B1CD1CA
:101500001378012B19D0012313702424547004681C
:1015100025689D432560046825681E03B543256042
:10152000046825680D43256000680168194301605F
:10153000202050700020107070BD022070BD70B56A
:10154000024640325378202B1BD11378012B18D040
:10155000012414702423537003681D68A5431D6083
:1015600005682B680F263602B34309021943296028
:101570000068016821430160202050700020107035
:1015800070BD022070BD000070B5040006D0254675
:10159000403568780026002802D005E0012070BDA3
:1015A0002E70204600F062F92420687020680168DF
:1015B0004908490001600F216068090688432168D5
:1015C000086121688A680120C00382438A60E1685B
:1015D0000129A16808D0212292021143226891605A
:1015E000E168022902D005E00143F7E70121226802
:1015F000C902516021684A680F4B1A434A6021684A
:10160000CA688243CA60616920690843A169090206
:1016100008432168C860216AE069084321680860BE
:10162000206801680122114301606664202068700F
:101630002663AE70002070BD00800002FFB5044636
:10164000002083B02546403501906A78202A74D165
:1016500022689269D24312047BD52A78012A78D075
:1016600001222A7024226A7060648F05BF0DE06831
:1016700001280BD00520C0020121381889028843B7
:1016800021684860FFF730FF06460CE03248F3E778
:101690000698401C07D0FFF727FF811B0698814260
:1016A00019D8002817D02168886989698006C00F79
:1016B000C906C90F0843EBD020688069069BC04368
:1016C000C006009617D500222021204601F020F9FF
:1016D000002830D107E020206870616C014361640C
:1016E0000020287027E021682020C8616870002051
:1016F000287007B0F0BD00222021204601F008F933
:10170000002818D121681020C86121682020C861F4
:1017100001990598814214D1206841680122920301
:10172000114341600096002220212046069B01F0D3
:10173000EFF8002802D00120DBE70AE02168202032
:10174000C8610198401C01460190059881428ED3E2
:10175000C1E70220CDE7000000200002FFB50546EA
:1017600004464035687881B0202878D1287801284F
:1017700075D001202870FFF7B7FE074601220090C0
:101780001923D103204601F0C3F800283CD12120C1
:1017900068701020A8700026666403986062049840
:1017A00060856663618D2F48FF2903D9FF2222855A
:1017B00000903BE0618D218500903DE0204602993C
:1017C00001F092F816E001F0F0F800281CD1606AF0
:1017D000216800788862606A401C6062608D401EEB
:1017E0006085208D401E80B22085618D002901D04A
:1017F00000280CD0608D0A9900283A462046E2D194
:1018000001F0ADF800281CD0012005B0F0BD009714
:101810000022802120460A9B01F07AF80028F3D1AB
:10182000608DFF2805D9FF222285009601231B0623
:10183000C4E7608D20850096208D0123C2B25B062F
:10184000BCE721682020C86121684A68064B1A401D
:101850004A606870AE702E700020D6E7FFE7022065
:10186000D3E700000020008000E800FE10B586B03D
:10187000044614216846FEF7DDFD134920688842BE
:1018800020D1124C6169012040040143616161690A
:101890000140032005914002009012200190002099
:1018A0000290032003900420049009206946C0069A
:1018B000FFF73AFDE169012040050143E161E1697B
:1018C0000140059106B010BD0054004000100240D8
:1018D00002488168027889188160704720000020E2
:1018E00010B506480168102211430160032000F082
:1018F00007F800F027F8002010BD0000002002408B
:1019000070B504460D4D7D202978C000FEF794FD8A
:1019100001460B480068FEF78FFD00F01BFE002813
:1019200009D1042C07D200222146401E00F02AF8DB
:1019300000206C6070BD012070BD00002000002000
:101940002C00002008B508488169012211438161FB
:10195000816911400091C26901040A43C261C069F2
:101960000840009008BD000000100240002805DB80
:10197000C106C90E01208840014908607047000077
:1019800000E100E010B501F0D1FD10BDF8B505464D
:101990000068354CC00352D5E0690026C00007D46A
:1019A000E16920040143E161E16901400126009100
:1019B0002E480168C90510D40168821511430160E1
:1019C000FFF792FD074604E0FFF78EFDC01B642879
:1019D00024D826480068C005F6D5206A03273F02B0
:1019E000384020D06968394081421CD0206A226A80
:1019F000B843012109040A432262226A8A4322620F
:101A00002062C0070FD0FFF76FFD009008E0FFF7DE
:101A10006BFD0099411A1648814201D90320F8BD97
:101A2000206A8007F3D5206A6968B84308432062BA
:101A3000002E04D0E169012000078143E16128788C
:101A4000C00705D0206BA968800880000843206388
:101A50002878800605D5206B10218843E968084363
:101A600020630020F8BD000000100240007000401C
:101A700088130000F8B50F46060059D03A4D286883
:101A8000C007C00FB84209D2286840084000384358
:101A900028602868C007C00FB84249D13068334C6D
:101AA00081070CD5400704D5606807210902084367
:101AB00060606068F0218843B168084360603078F6
:101AC000C00726D0706801280ED0216802280ED0E9
:101AD000890700292CDA616889088900014361605F
:101AE000FFF702FD00900DE021688903F1E789010D
:101AF000EFE7FFF7F9FC0099411A1D48814201D92F
:101B00000320F8BD60680C21084071688900884294
:101B1000EFD12868C007C00FB8420BD92868400829
:101B20004000384328602868C007C00FB84201D081
:101B30000120F8BD3078400706D56068072109020A
:101B40008843F1680843606000F028F86168094A3A
:101B50000906090F515CC840074908600320FFF7D8
:101B6000CFFE0020F8BD000000200240001002401F
:101B700088130000B43E00082C00002004480549EA
:101B800000684968044A4905490F515CC8407047DC
:101B90002C00002000100240C43E000810B514A321
:101BA0000FCB88B06C460FC415A30FCB0FC4184AD7
:101BB00051680C200B4603401648042B16D0082B06
:101BC00014D18B021B0F6C46E45CD26A04AB120783
:101BD000120F9A5CC90305D500231946FEF7E6FAF1
:101BE000214601E020460C4901F072FC08B010BD0E
:101BF00002030405060708090A0B0C0D0E0F10104E
:101C00000102030405060708090A0B0C0D0E0F104C
:101C10000010024000127A0000093D00FEB50400E9
:101C200070D02078DC4DC0074AD068680007800F6C
:101C3000012807D068680007800F022809D168686A
:101C4000C00306D5286880033AD560680028E7D02D
:101C500036E06168012914D001208004002901D0F8
:101C6000052914D02A68012109048A432A602968B9
:101C7000814329606068002816D0FFF735FC0646CE
:101C80000EE028680121090408432860F2E729686A
:101C900001432960F5E7FFF727FC801B64286ED815
:101CA00028688003F7D50BE0FFF71EFC064604E02A
:101CB000FFF71AFC801B6428F1D828688003F7D44A
:101CC00020780126800700283CDA68680007800F2A
:101CD00007D068680007800F022809D16868C00330
:101CE00006D42868800716D5E06801280AD112E0DA
:101CF000E0680028286816D030432860FFF7F4FB1E
:101D0000074605E043E1FFF7EFFBC01B0228C6D8FA
:101D100028688007F7D52868F82188432169C90019
:101D2000084328600EE0400840002860FFF7DCFB15
:101D3000074604E0FFF7D8FBC01B0228AFD828688D
:101D40008007F7D42078000722D5E0690028686A68
:101D50000ED030436862FFF7C7FB074604E0FFF789
:101D6000C3FBC01B02289AD8686A8007F7D50FE02A
:101D7000400840006862FFF7B7FB074605E09DE0BA
:101D8000FFF7B2FBC01B022889D8686A8007F7D426
:101D9000207804274007002860DA00200190E869D5
:101DA000C00008D4E969B8060143E961E969014066
:101DB00001200091019079480168C90511D401689A
:101DC000821511430160FFF78FFB009005E0FFF7DC
:101DD0008BFB0099401A642870D870480068C005D1
:101DE000F5D5A06801280AD0002801D0052810D018
:101DF000286A400840002862286AB84301E0286A3F
:101E000030432862A068002812D0FFF76DFB0090D5
:101E10000AE0286A38432862F1E7FFF765FB00997A
:101E2000411A5F48814249D8286A8007F5D50DE0FC
:101E3000FFF75AFB009006E0FFF756FB0099411AA6
:101E4000574881423AD8286A8007F5D4019800287B
:101E500004D0E969012000078143E9612078C006C8
:101E600035D5606901280CD0401D686B23D03843FC
:101E70006863686B400840006863FFF735FB0646FF
:101E800022E0686B38436863686B30436863FFF730
:101E90002BFB064604E0FFF727FB801B02285BD8DC
:101EA000686B8007F7D5686BF8218843A169C90082
:101EB000084368630BE0B8436863F4E74CE0FFF75E
:101EC00013FB801B022847D8686B8007F7D4206A71
:101ED00000285ED069680907890F022942D00126CF
:101EE00036060228286805D0B0432860FFF7FCFAC0
:101EF000044633E0B0432860FFF7F6FA074604E0F3
:101F0000FFF7F2FAC01B022826D828688001F7D410
:101F1000E86AE16A000900010843E862616AA06AB0
:101F2000084369683D2212049143084368602868A9
:101F300030432860FFF7D8FA044604E0FFF7D4FAEC
:101F4000001B022808D828688001F7D521E0FFF798
:101F5000CBFA001B022801D90320FEBD28688001AE
:101F6000F5D416E00128F8D06868E96A0122120465
:101F7000636A02409A420AD10907E26A090F914254
:101F800005D10F2189040840A16A884201D00120AF
:101F9000FEBD0020FEBD00000010024000700040A9
:101FA0008813000070B5040003D0607F002802D0C1
:101FB00006E0012070BD00202077204600F04CF89C
:101FC000022060772168CA20486221685320486255
:101FD000204600F0AFFDFF250426002824D120680C
:101FE00081681C4A11408160216888686268636961
:101FF000104322691A43104388602168E068086131
:102000002068016922891204114301612068C168B6
:1020100080229143C16020688068800608D42046F1
:1020200000F02AF8002803D0206845626677C0E7F0
:102030002068016C01229204914301642068016CC4
:10204000A269114301642068456201206077002085
:1020500070BD0000BFFF8FFF00680549884205D1B1
:102060000448016A0122D203114301627047000053
:10207000002800400010024070B504460068C168A6
:10208000A0229143C160FFF72FFA7D260546F60096
:1020900006E0FFF729FA401BB04201D9032070BDCA
:1020A0002068C0688006F4D5002070BDF8B5040033
:1020B0000CD0606A002500280AD02561656126469B
:1020C0004036A562707F002808D00BE00120F8BDE3
:1020D0006168C81FFD38F2D0E561F0E7357720462A
:1020E00000F05CF80222727720680168402399436F
:1020F00001600723E1681B02994201D9002001E039
:10210000012000030F273F02B94202D0994200D0BC
:10211000A562FF236168053319402127A368BF0228
:102120003B40194323691340227D1943D207D20F44
:1021300011430123A2695B021A401143E26938236B
:102140001A401143226A80231A401143A26A9B015C
:102150001A40114322681160A1690422090C114040
:10216000626A10231A401143626B08231A4011431C
:102170000F23E2681B021A40114301221203104090
:102180000143206841602068C16952109143C161D8
:102190002566012070770020F8BD000010B586B0DC
:1021A000044614216846FEF745F911492068884223
:1021B0001CD11048826981140A43826182690A40F5
:1021C0000592426949010A4342614069084005900D
:1021D00060200090022001900021032003900291D2
:1021E000049109206946C006FFF79EF806B010BDAD
:1021F0000030014000100240FFB504464068FF2156
:10220000254600260531403581B01746884202D167
:10221000A06800280CD0287F012815D0012028773D
:10222000FFF762F90090687F01280FD002268FE047
:102230000420687713460498029A009011462046BD
:1022400000F08EF805B0F0BD0220FBE702980028F0
:102250007DD0002F7BD00420687700202066029973
:102260002164AF80EF80A063A087E087E0642065F1
:1022700007210120E268090200038A4222685368AC
:1022800001D9834300E0034353600123A068DB03CB
:102290004022984208D12068036893430360206875
:1022A00003681702BB430360206803685B0602D41F
:1022B000036813430360E06888421AD938E0206855
:1022C0008168C90709D0007B216C0870206C401C14
:1022D0002064E888401EE8800BE0FFF705F90099CC
:1022E000411A0498814202D3401C02D036E00028F3
:1022F00034D0E8880028E2D11DE020688168C90751
:1023000009D0C068216C0880206C801C2064E8889B
:10231000401EE8800CE0FFF7E7F801460098091A34
:102320000498814202D3401C02D017E0002815D047
:10233000E8880028E1D12046009A049900F016FCB4
:10234000002801D020202066206E002800D0012621
:102350000120687700202877304673E70326F7E7E7
:10236000FFB5044683B0012001900020254640358A
:102370000090287F0C9F1E4601280FD0012028774F
:10238000FFF7B2F80290687F616801280DD0CA1F7C
:10239000FD3A08D1A168002905D102E0022007B06A
:1023A000F0BD042801D00220D1E00498002820D0FC
:1023B000059800281DD0002E1BD0687F042801D06E
:1023C000052068770020206605992164EE80AE80A4
:1023D0000499A163E687A687E064206507210120B0
:1023E000E268090200038A422268536803D98343E2
:1023F00002E00120ABE0034353602068026852060C
:1024000003D4026840231A430260E068884260688F
:1024100044D9002801D0012E39D1A06B2168008851
:10242000C860A06B801CA063E08F401EE0872EE098
:1024300020688168890710D5E18F00290DD00199A6
:1024400001290AD1A16B0988C160A06B801CA0631F
:10245000E08F401EE0870020019020688168C90756
:102460000DD0E98800290AD0C068216C0880206C52
:10247000801C2064E888401EE88001200190FFF75E
:1024800033F80299401AB84201D3781C5ED1E08F2C
:102490000028CDD1E8880028CAD146E0002801D024
:1024A000012E3CD1A06B216800780873A06B401C02
:1024B000A063E08F401EE08731E0206881688907D3
:1024C00010D5E18F00290DD0019901290AD1A16B06
:1024D00009780173A06B401CA063E08F401EE08769
:1024E0000020019020688168C9070DD0E988002983
:1024F0000AD0007B216C0870206C401C2064E888A6
:10250000401EE88001200190FEF7EEFF0299401A7C
:10251000B84202D3781C02D018E0002F16D0E08F0A
:102520000028CAD1E8880028C7D139462046029A37
:1025300000F058FB002803D00120009020202066E6
:102540000120687700202877009828E70320009072
:10255000F6E70000094910B5401E884201D9012064
:1025600010BD074C60610321081F00F0DFFF002051
:10257000A06107202061002010BD0000FFFFFF00C8
:1025800000E000E07047704770B5040005D02546B4
:102590002035687F002802D006E0012070BD0020B1
:1025A0002877204600F014F802206877211D206863
:1025B00000F0C2FD01204034A071A877E8772070B8
:1025C0006070A070E070207160716877002070BD4D
:1025D00008B50068094988420FD10948C2698115C8
:1025E0000A43C261C06900220840009011461320CE
:1025F000FFF7C8F91320FFF7B9F908BD0020004024
:1026000000100240704770B504460068016900255B
:10261000C9438907002915DBC168C943890711D45B
:10262000E91E01610120207720688069800720462B
:1026300002D0FFF7E7FF04E000F096F8204600F034
:1026400094F8257720680169C943490717D4C16800
:10265000C943490713D40421C943016102202077EB
:10266000206880698005800F204602D0FFF7CAFFEE
:1026700004E000F079F8204600F077F8257720682C
:102680000169C943090716D4C168C943090712D4AF
:102690000821C9430161042020772068C0698007B0
:1026A000204602D0FFF7AEFF04E000F05DF82046C0
:1026B00000F05BF8257720680169C943C90617D483
:1026C000C168C943C90613D41021C9430161082058
:1026D00020772068C0698005800F204602D0FFF770
:1026E00091FF04E000F040F8204600F03EF8257726
:1026F00020680169C943C90708D1C168C943C9072E
:1027000004D1891E0161204600F030F8206801697B
:10271000C943090609D4C168C943090605D4802103
:10272000C94301612046FFF72DFF20680169C943B5
:10273000490609D4C168C943490605D44021C943A3
:102740000161204600F013F820680169C943890639
:1027500009D4C168C943890605D42021C943016150
:102760002046FFF710FF70BD7047704770477047F5
:1027700010B5040003D0A06F002802D007E00120AC
:1027800010BD002174200155204600F027F82420B8
:10279000A06720680168490849000160204600F0F0
:1027A0009FFD0128ECD0606A002802D0204600F08E
:1027B000FFFC206841680122D202914341602068F9
:1027C00081680822914381602068016801221143D9
:1027D0000160204600F052FD10BD000010B586B02B
:1027E000044614216846FDF725FE124920688842F8
:1027F0001ED111488269012189030A4382618269DD
:102800000A4005924269C9000A4342614069084092
:1028100005900C20009002200190002002900320DF
:1028200003900120049009206946C006FEF77CFD54
:1028300006B010BD0038014000100240FEE70168FC
:102840008A69D243920701D400228A6200688169B2
:10285000C943C90703D081690122114381617047CF
:10286000F7B5044600680F468169C943C90636D4E6
:102870004168890104D441680122920311434160F7
:1028800000262546403520688069C043800612D561
:10289000781CF8D0FEF728FE0299401AB84201D8F9
:1028A000002FF0D1616C2020014361646870AE702C
:1028B0002E700120FEBD21681020C86120682027ED
:1028C000C7612046FFF7BBFF20684168054A1140F9
:1028D0004160606C0421084360646F70E7E700208A
:1028E000FEBD000000E800FEF0B50668059C7568B6
:1028F000064F600D384385438805800D1104084359
:102900001843204305437560F0BD0000FF63FF03DB
:10291000F8B51D4617460E46044609E0681C07D068
:10292000FEF7E2FD0699401AA8420BD8002D09D007
:1029300020688169304688430FD00020B842EDD02E
:102940000020F8BD616C2020014361644034607058
:102950000020A07020700120F8BD0120EEE770B5C6
:1029600016460D4604460FE0324629462046FFF73C
:1029700077FF002801D0012070BDFEF7B5FD801B58
:10298000A84208D8002D06D020688069C043800680
:10299000EAD4002070BD616C2020014361644034A2
:1029A00060700020A0702070E5E770B516460D46F7
:1029B000044611E0324629462046FFF751FF002821
:1029C00001D0012070BD681C06D0FEF78DFD801B74
:1029D000A84208D8002D06D020688069C04380072F
:1029E000E8D4002070BD616C202001436164403454
:1029F00060700020A0702070E3E7000010B513485D
:102A00001149016012494160002181600161416109
:102A100081610122C161C2600162FEF7B5FD00283B
:102A200001D072B6FEE700210848FEF763FD0028DA
:102A300001D072B6FEE700210448FEF780FD0028B1
:102A400001D072B6FEE710BD0054004030000020F7
:102A50000B02000010B5124810490160FF2105313A
:102A6000416001218902816007210902C1600021C2
:102A700001220161520282614161016228224162A8
:102A8000C26181620722C262016308214163FFF7CC
:102A90000DFB002801D072B6FEE710BD00300140EA
:102AA0009C00002010B50C480A490160E121490250
:102AB000416000218160C16001618161C1610C22BE
:102AC000016242614162FFF753FE002801D072B6F5
:102AD000FEE710BD003801404801002070B509260E
:102AE000F606002280213046FEF7F8FC642302221D
:102AF0000D490E48FFF780FB0B480122047845780A
:102B000080213046FEF7EAFC6420FEF7FBFB200242
:102B10002843C008FDF7A7FD0122D243FDF7A6FD1B
:102B2000FDF73AFD70BD0000000000209C00002071
:102B3000FEE7704770B504460068C168490613D4C3
:102B40000021C943C160FEF7CFFC7D260546F60093
:102B500006E0FEF7C9FC401BB04201D9032070BD5E
:102B60002068C0684006F4D5002070BDF7B5044663
:102B70004068FF26053682B01546B0420CD10121CF
:102B8000A068C903884202D04911884204D1206854
:102B90000168402291430160009500228021204677
:102BA000039B00F0B1F82027002813D16068B042E1
:102BB00016D1A068B902884202D0491188420FD1CB
:102BC00003210095002249022046039B00F030F8C3
:102BD000002805D0206E38432066032005B0F0BDE4
:102BE0000020FBE7F8B50F460B461546009203217F
:102BF00004460022C90200F01BF82026002812D14A
:102C00003B46002280212046009500F07DF80028F8
:102C100009D103213B46002249022046009500F0DD
:102C200007F8002803D0206E304320660320F8BD4B
:102C3000FFB585B00E460446002069460E9D174636
:102C40000871FEF751FC411B0898451AFEF74CFC31
:102C50000390206823210C3002902A4800684843E2
:102C6000000D684346E003204002864206D1002F53
:102C700004D1029801786846017100790898401CD7
:102C800039D0FEF731FC0399401AA84205D2002D35
:102C900003D0009800282BD02BE020684168E02268
:102CA000914341606068C11FFD390CD10121A068CA
:102CB000C903884202D04911884204D120680168C2
:102CC0004022914301600120A16A4003814207D163
:102CD00021680A6882430A6021680A6802430A6020
:102CE00001204034607700202077032009B0F0BD38
:102CF0000025401E0090206880683040B842B2D164
:102D00000020F3E72C000020FFB581B01E460446EA
:102D10000A9DFEF7E9FB401B351AFEF7E5FB074667
:102D2000264800684001000D684339E0701C38D027
:102D3000FEF7DAFBC01BA84205D2002D03D0009895
:102D400000282BD02BE020684168E02291434160AD
:102D50006068C11FFD390CD10121A068C9038842F8
:102D600002D04911884204D1206801684022914371
:102D700001600120A16A4003814207D121680A68ED
:102D800082430A6021680A6802430A6001204034D5
:102D9000607700202077032005B0F0BD0025401E9D
:102DA0000090206881680298884305D0002103982C
:102DB0008142BBD10020EFE70121F8E72C00002081
:102DC00070B5802815D2402913D24D0701246D0F0C
:102DD0000A4BAC40C9081E79C901094B0818002EDE
:102DE00002D0002A06D001E0012A03D0195CA143D9
:102DF000195470BD195C2143FAE700001800002047
:102E0000CC01002010B5002806D0FF220121890244
:102E10000248FDF7E8FA10BD0022F7E7CC010020D8
:102E2000014A1080518070471800002010B500F052
:102E30003BFC554B012278215448FEF7FFFB00284C
:102E400001D0002010BD5248401EFDD1AE2200210D
:102E5000782000F02FFC20220021782000F02AFCAE
:102E600010220021782000F025FCB02200217820DB
:102E700000F020FCC8220021782000F01BFC00227A
:102E80001146782000F016FC10220021782000F076
:102E900011FC40220021782000F00CFC812200214E
:102EA000782000F007FCFF220021782000F002FCCF
:102EB000A1220021782000F0FDFBA622002178202D
:102EC00000F0F8FBA8220021782000F0F3FB3F225D
:102ED0000021782000F0EEFBA4220021782000F0F1
:102EE000E9FBD3220021782000F0E4FB0022114608
:102EF000782000F0DFFBD5220021782000F0DAFBFB
:102F0000F0220021782000F0D5FBD9220021782082
:102F100000F0D0FB22220021782000F0CBFBDA2247
:102F20000021782000F0C6FB12220021782000F05A
:102F3000C1FBDB220021782000F0BCFB2022002115
:102F4000782000F0B7FB8D220021782000F0B2FB42
:102F500014220021782000F0ADFBAF220021782060
:102F600000F0A8FB2E220021782000F0A3FB002017
:102F7000FFF748FF00F06CF806480021018041800F
:102F800001214171084610BD204E00003000002094
:102F9000C209000018000020F7B50D4621482A7824
:102FA00001888918802904D240886978401840280F
:102FB00001D30020FEBD002627E000996A68203971
:102FC000484380194000175A00241AE03846A040B0
:102FD000000408D51348029A41880088891900190D
:102FE00089B280B20AE00298002818D000220D4869
:102FF000418800888919001989B280B2FFF7E0FE84
:10300000641C2878A042E1D8761C6878B042D4D8F5
:1030100004482A780188891801800098FEBD0122A1
:10302000E5E700001800002070B515460E4604467E
:1030300009E02A463146FFF7AFFF2178884201D0E8
:10304000C8B270BD641C20780028F2D1C0B270BD37
:1030500070B50F4D00242046B030C2B20021782058
:1030600000F028FB00221146782000F023FB1022FC
:103070000021782000F01EFBE0014219802340214E
:10308000782000F027FB641CE4B2082CE3D370BD69
:10309000CC010020704710B5FEF71AFC10BD0000EF
:1030A00030B595B030216846FDF7C4F900240F947F
:1030B0000A2000900D9401200C9412941194039016
:1030C0000E9407901394C0041094102102250994C3
:1030D0000A90089504910B946846FEF79FFD00281E
:1030E00001D072B6FEE707200C900E9400210D95DA
:1030F0000F940CA8FEF7BEFC002801D072B6FEE7C4
:1031000007481090C01111901294139410A8FEF764
:103110003DFC002801D072B6FEE715B030BD0000BE
:10312000210001007047000010B50248FFF76BFA5C
:1031300010BD00000001002070B50268174B184E4A
:10314000984201D0B04203D17024A2434C6822437C
:10315000144C154D984208D0B04206D0134EB042E0
:1031600003D0A04201D0A84204D103263602B243C4
:10317000CE6832438026B2434E69324302608A6889
:10318000C2620A688262984203D0A04201D0A8427B
:1031900001D1096901630121416170BD002C014029
:1031A000000400400044014000480140002000406D
:1031B00010B5818CC90707D001684A6801235B04F8
:1031C0009A43836A1A434A60818C890707D501684C
:1031D0004A6801231B049A43C36A1A434A60818CDC
:1031E000490707D501684A6801239B049A43036B8A
:1031F0001A434A60818C090707D501684A68012390
:10320000DB039A43436B1A434A60818CC90607D596
:103210000268916801231B039943836B19439160F2
:10322000818C890607D501688A6801235B039A436C
:10323000C36B1A438A60818C490612D503685A68A9
:1032400001210905046C8A4322435A60026C8A42B8
:1032500007D10268516803235B059943436C194306
:103260005160818C090607D501684A680123DB0497
:10327000806C9A4302434A6010BD0000F8B50446D2
:10328000002680300660FEF72FF9054620680068AA
:10329000124F000709D501212B460022490520467F
:1032A000009700F0ABF800280DD1206800684007B7
:1032B0000BD501212B46002289052046009700F0FE
:1032C0009DF8002801D00320F8BD2020A067E0670A
:1032D0002666603426750020F8BD0000FFFFFF0160
:1032E00070B5044680682169E26908436169002578
:1032F0001143084321680A683C4B1A4002430A60A4
:1033000021684868032212039043E2681043486032
:10331000A169206A084321688A680B231B029A432B
:1033200002438A603248006B8007800F16D0012864
:1033300018D0022818D0032812D010210120E369E8
:10334000C0032C4A2C4E83422BD100290ED00229D7
:103350000FD004290FD008293FD110E00021EDE75C
:103360000221EBE70421E9E70821E7E7FEF706FC85
:1033700003E0104603E0FEF711FC002831D061683D
:1033800040004A088018FDF757F880B2014610390E
:10339000B14222D81849491C01400007400F084398
:1033A0001DE0002906D0022907D0042907D00829EA
:1033B00013D108E0FEF7E2FB03E0104603E0FEF75E
:1033C000EDFB00280DD061684A081018FDF734F8AD
:1033D00080B201461039B14201D9012501E02168CE
:1033E000C86000206066A066284670BDF369FFFFD4
:1033F0000010024000127A00EFFF0000FFB581B01C
:1034000005461746044660350A9E55E0701C53D0A9
:10341000FEF76AF80499401AB04230D8002E2ED038
:1034200020680168490747D5C069C043000543D4F7
:1034300001202168C0020862EFF31080012181F3AE
:10344000108821680B68FF22A13293430B6080F340
:103450001088EFF31080012181F3108821688A68B9
:10346000520852008A6080F310882020A067E0672D
:103470008034206000202875032005B0F0BDEFF3F4
:103480001080012181F3108821680B68FF22A1328E
:1034900093430B6080F31088EFF31080012181F3D8
:1034A000108821688A68520852008A6080F3108868
:1034B0002020A067E067DDE72068C16902988843A3
:1034C00004D00020B842A1D00020D6E70120F9E7BF
:1034D000F8B5040C8BB2264682B25E430D0C104642
:1034E000370C5843360480190021794116466E4343
:1034F000370C36048019794126466E438919F8BD88
:103500004900CA020243100000D004204A0D01D035
:1035100001221043044A490D914201D1022108437E
:10352000012800D105207047FF0700008307FF2214
:10353000DB0E9A408907090E9940002808DB8308B2
:1035400009489B001B18186890430843186070478F
:103550000007000F0838830804489B001B18D8692F
:1035600090430843D861704700E400E000ED00E0BC
:1035700030380A2801D2012070470020704700002F
:1035800086B0FEF7ADF9FFF78BFD14216846FCF716
:1035900051FF38484269012149040A4342614069A8
:1035A000002208409021CD0505902846FDF796FFA2
:1035B0009020009001200024019002946946039419
:1035C0002846FDF7B1FEFFF719FA2B492B4812C028
:1035D0007F2101608460C460FF210461416008387C
:1035E000FEF7E0FC002801D072B6FEE7FFF732FAE2
:1035F00022482349843001600F21846041600461C6
:1036000020498461C160FEF7BFFF002801D072B677
:10361000FEE7FFF747FAFFF709FC7D261A4C360153
:103620003046FDF76FFEFFF759FA6060FDF74EF880
:10363000024615480B4615A10830FCF739FE10214B
:103640002846FDF743FF0F210846FFF7E9FB01225B
:10365000104911A0FFF7E8FC23210846FFF7E0FB23
:10366000094801220B490830FFF7DEFCFFF7F0FCA8
:10367000D6E7000000100240002800407C00002037
:1036800000200040E703000000000020252E3266E5
:10369000000000001000002054656D7065726174B8
:1036A000757261206A653A000148401EFDD170477D
:1036B00090D003001CB56B4619715A710A21009114
:1036C0000146022301AA0248FEF748F81CBD00008B
:1036D0003000002070B5C2B06C462171002401A9F1
:1036E00004E0155D0E19641C7570E4B29C42F8D3B9
:1036F0000A2100915B1C01469BB201AA0248FEF719
:103700002DF842B070BD00003000002010B5002937
:103710000AD00878002807D005487844FDF7A6FDB0
:10372000002801D0002010BD0248784410BD0000E0
:10373000660800005E08000003B40248784484462E
:1037400003BC60477BD1FFFF0000000000000000C9
:103750000000000000000000000000000010001049
:103760000010001000100010000000100000000009
:1037700000280028002800000000000000000000D1
:103780000000000000240024007C00240048007C8D
:103790000048004800000000003800540050003885
:1037A00000140054005400380010000000200054A1
:1037B00000580030002800540014000800000000E9
:1037C0000010002800280010003400480048003491
:1037D00000000000001000100010000000000000B9
:1037E0000000000000000000000800100020002081
:1037F0000020002000200020001000080020001001
:103800000008000800080008000800080010002058
:103810000010003800100028000000000000000028
:10382000000000000000000000100010007C0010EC
:103830000010000000000000000000000000000078
:103840000000000000000010001000100000000048
:103850000000000000000038000000000000000030
:103860000000000000000000000000000000001048
:1038700000000000000800080010001000100010F8
:1038800000200020000000000038004400440054E4
:1038900000440044004400380000000000100030E4
:1038A0000050001000100010001000100000000078
:1038B0000038004400440004000800100020007C90
:1038C0000000000000380044000400180004000458
:1038D00000440038000000000008001800280028FC
:1038E0000048007C0008000800000000007C004048
:1038F000004000780004000400440038000000008C
:10390000003800440040007800440044004400387F
:1039100000000000007C00040008001000100020DF
:10392000002000200000000000380044004400385F
:103930000044004400440038000000000038004407
:1039400000440044003C0004004400380000000033
:103950000000000000100000000000000000001047
:103960000000000000000000000000100000000047
:10397000000000100010001000000000000C0030DB
:1039800000400030000C00000000000000000000BB
:103990000000007C0000007C00000000000000002F
:1039A0000000000000600018000400180060000023
:1039B000000000000038004400040008001000105F
:1039C000000000100000000000380044004C0054CB
:1039D000005C00400040003800000000001000289B
:1039E000002800280028007C00440044000000005B
:1039F000007800440044007800440044004400780B
:103A0000000000000038004400400040004000403A
:103A100000440038000000000070004800440044EA
:103A2000004400440048007000000000007C00409A
:103A30000040007C004000400040007C000000008E
:103A4000007C004000400078004000400040004002
:103A5000000000000038004400400040005C0044CA
:103A60000044003800000000004400440044007C92
:103A700000440044004400440000000000380010EE
:103A800000100010001000100010003800000000AE
:103A90000004000400040004000400040044003892
:103AA0000000000000440048005000600050004842
:103AB000004800440000000000400040004000407A
:103AC000004000400040007C000000000044006C0A
:103AD000006C005400440044004400440000000016
:103AE00000440064006400540054004C004C004446
:103AF000000000000038004400440044004400443A
:103B000000440038000000000078004400440044F5
:103B100000780040004000400000000000380044F1
:103B200000440044004400440054003800040000F5
:103B300000780044004400440078004800480044F5
:103B4000000000000038004400400030000800047D
:103B50000044003800000000007C0010001000103D
:103B6000001000100010001000000000004400448D
:103B700000440044004400440044003800000000B9
:103B800000440044004400280028002800100010D1
:103B90000000000000440044005400540054006C35
:103BA0000028002800000000004400280028001021
:103BB00000100028002800440000000000440044D9
:103BC0000028002800100010001000100000000065
:103BD000007C000400080010001000200040007C61
:103BE000000000000018001000100010001000106D
:103BF000001000100010001800200020001000101D
:103C00000010001000080008000000000030001044
:103C10000010001000100010001000100010003004
:103C200000100028002800440000000000000000F0
:103C30000000000000000000000000000000000084
:103C400000000000000000FE002000100000000046
:103C50000000000000000000000000000000000064
:103C600000380044003C0044004C003400000000D8
:103C700000400040005800640044004400640058C4
:103C80000000000000000000003800440040004038
:103C90000044003800000000000400040034004C20
:103CA00000440044004C003400000000000000000C
:103CB00000380044007C0040004400380000000050
:103CC000000C0010007C001000100010001000100C
:103CD00000000000000000000034004C00440044DC
:103CE000004C00340004007800400040005800649C
:103CF00000440044004400440000000000100000A4
:103D000000700010001000100010001000000000F3
:103D100000100000007000100010001000100010D3
:103D2000001000E0004000400048005000600050DB
:103D30000048004400000000007000100010001057
:103D40000010001000100010000000000000000033
:103D50000078005400540054005400540000000047
:103D60000000000000580064004400440044004487
:103D7000000000000000000000380044004400443F
:103D800000440038000000000000000000580064FB
:103D9000004400440064005800400040000000005F
:103DA0000034004C00440044004C00340004000483
:103DB0000000000000580064004000400040004047
:103DC000000000000000000000380044003000083F
:103DD000004400380000000000200020007800208F
:103DE000002000200020001800000000000000005B
:103DF0000044004400440044004C00340000000033
:103E000000000000004400440028002800280010A2
:103E10000000000000000000005400540054006C3A
:103E200000280028000000000000000000440028D6
:103E300000100010002800440000000000000000F6
:103E4000004400440028002800100010001000600A
:103E500000000000007C0008001000200040007CF2
:103E600000000000001800100010001000200020CA
:103E700000100010001000180010001000100010BA
:103E80000010001000100010001000100030001092
:103E90000010001000080008001000100010003092
:103EA0000000000000000074004C00000000000052
:103EB00000000000000000000000000001020304F8
:103EC0000607080900000000010203040240000088
:103ED000000000A00000000005400000000000C835
:103EE000000000000C4000000000409C00000000AA
:103EF000194000000020BCBE00000000344000005B
:103F0000BFC91B8E00000004B5400000504BCFD04D
:103F10006607E2CF010000006C4100003E8251AA1A
:103F2000DFEEA73401000000D9420000DCB5A0E2BA
:103F30003A301F97FFFFFFFFB4450000FD25A0C8E2
:103F4000E9A3C14FFFFFFFFFFF3F0000000000801B
:103F500000000000FF3F00000000008000000000A3
:103F60009C3F00080000002030000000F400000822
:103F7000CC3F000830000020000C000010010008B9
:103F80001C00000043000000F8FFFFFF0C000000D1
:103F90000E0000000F0000002E00000000000000D6
:103FA000000000000000000000000000070A000000
:103FB0004837000800000000000000000100000079
:0C3FC000040000000000000000127A0065
:04000005080000B13E
:00000001FF
